:400000000020002011000000890300008903000010B50C4A0C4B1A600C4B1A68102313400B4A00D113601368802B09D10023136000F096F8002803D000F092F800F0A8F85A
:4000400000F0E0FE6588EDAC38000340540003408000002000000000000000000000000000000000000000000000000000000000000000000000000000000000000000007A
:400080000000000000000000000000000000000000000000000000000000000000000000000000000000000000000000000000000000000000000000000000000000000040
:4000C0000000000000000000000000000000000000000000000000000000000000000000CC05023161700200B0110220000000000000000000000000000000000000000046
:4001000010B5064C2378002B07D1054B002B02D0044800E000BF0123237010BD80010020000000000C0F0000084B10B5002B03D00749084800E000BF07480368002B00D187
:4001400010BD064B002BFBD09847F9E700000000840100200C0F00008800002000000000074B1A78074B1878074B000219780B04184303001343054A1078000618437047E7
:40018000C1FF0000C2FF0000C3FF0000C4FF00000047000070B51D491D4BCC58002C34D00C3BCC5063052BD5C86D1A4BCA6D40041A600022400F824208DA15001835AD002B
:4001C0004E59013295005E51D2B2F4E707200F211A68550A05401140012902D1120B02420ED05A1CD27F002A03D09A1CD27F954206D001215A1CD1779A1CD57740225A6200
:40020000A30502D50122034B5A6270BD00000A400C05000000020020031E0CD00023994209D04118814204D0027801309B18DBB2F8E75B42DBB2180070470000F8B5040030
:40024000A2784078E378120202431B0413431A00237906261B06134333D0A37A607AE17A1B02034309041A000B00217B13430906194326D0A57963792D021D43ED0128004E
:40028000114F80304318BB421BD8FFF7C5FF2378834216D12C008134FF34BC4211D80B4B22889A420DD12800E179A379090219438B300A39FF30FFF7AFFF237A834200D124
:4002C00000263000F8BDC046FFFF00005943000070B5802504002D02AC4205D9054800F0B7FD054BE418F7E70448604300F0B0FD70BDC0460000E02E0080FFFFC05D000007
:40030000F8B5070001200E001500FFF7E1FF174C4020230028331B782A03384310435B021843134B134AD8601278D9685001802252000A430243DA600022AA4206D2910022
:400340007058111D890058500132F6E780210A4A8902136803200B431360FFF7B9FF072228342378013313402370F8BD0002002000000A408C000020C4000A40002210B5BD
:400380001100FFF7BDFF10BD10B500F071FD03680C2B00D1FEE7FEE7002370B52E482F4C2F4D9A002100032B00D8A958013381501F2BF6D172B6DD2207252A4B2A4C1A6008
:4003C0002A4BA73A1A602A4B243A1A6000F049FD2368284AAB432360274B28491B780600DBB21360264A1368AB431360254B0A6818787F239A43034013430B60322000F03D
:4004000027FD052223683220AB431343236000F01FFD062223683000AB431343236000F024FD9E22C021184BD2011A60174B184A89001A60174A1160174A1A604022174B7D
:400440001A60174B1A68002A00D11A600121154A13680B43136070BD00000020890300000000000000000240080F034008000440300010400C0F0340FDF1FF0F180F0340E7
:40048000100F0340E4F1FF0F040201400000014001FF00800002014000FF0080280003408000002000001040F0B5C74C00232500A9B03135C5482B70FFF7C0FE002801D0BE
:4004C00004232B702300082131331A78C0480A43C0491A700A68019192B2BF4F824206D100220A6001211A780A431A7007E0019A12681A780423134001D100F031FC2022CF
:4005000001250026B54BB6495A809980D980E139FF391981B34B96209A65B34BC122DE611D623B68D200AB40EB403B6080231B063B60BB5816398B432B43BB50000100F0C7
:4005400087FC9622A94B52001A60A94AA94BD2211A60C022D200BB58C900AB40EB40BB507B58AB40EB407B50D623A349DB00F950BB58A2490B431421BB501032BB588B430F
:40058000BB509F4B0D311A68FF310A431A609D4A9D4916609D4A11608E211A68FF3115431D609B4A9B4B1A609B4A13685B0A5B020B4313608023994ADB0013609849994AFE
:4005C0001160994A99491360A1220133FF33F950D200BB580B438021BB50D932FF32BB5809050B43BB5062B6220032321578002D51D1C026F600002304AAD3719D4203D12D
:40060000BA598B4B134003E08822BB5952001343BB51F02000F01CFCAD239B00FA58A0235B01134080225201934202D1012304AAD37104ABDA79AB00D2B2002A25D0E218E5
:40064000516B01315163516B7A4A91421FD90022A11CEDB2E5636263A263CA77210028310A70611CCA772200012132321170C0220420D200B9588143B950B9580B43BB50C1
:40068000F8236D4A5B00FA5024E0E3185A630135022D1FD0AFE7AD239B00F9584D33FF331940E36B9B00E318002912D0596B01315963E36B9B00E318596B5E4B994209D9A7
:4006C000F8210023444849006363A3634350137000E05963666A012E23D1002500F0C1FB656200F0C2FBA31CDD77230028331D70631CDD77F8235B00FD50F2259620DE3B99
:40070000ED00FF3B7B514000FFF7E2FDF8227B595200B3437B51484BBB50230032331E70EDE2636A402B00D0E9E200F09AFB0023636200F09AFB0F2325682B406D046D0F50
:4007400000D1C5E2022B0DD10320FFF717FE3220FFF7BEFD0620FFF711FE2300032232331A70CCE20F2B00D0C9E21C4B1A78012A00D139E76279D2096ED02079C006C00ECA
:400780000138032800D9BAE200F09EFB020E121A2A4B210023642A4B403163640023A364284B0422E3648FE2274B2364274B02E0274B23640123210063644031022283E20A
:4007C000244B23647DE2C04600020020C0FF00004C4200008000002000000A408C000020FF01000000FF0A40FC000140D0000A400A404101D4000A4061643D008A0E304F36
:40080000C4000A40A8000A400B410000BC000A400F020000B4000A40E4000A4080E100E0950100006800002000E100E003060100EFFEFFFFC409000020002000418000FF47
:40084000B4040092000060F6428000FF0000B4044380B4044480B404E288C5498A4200D021E2210026792000F206D20E0292C04A603100914A8018216130027876098A437F
:4008800010390A4302701F20009972010978013D0840009902430A70029AAD00501EEDB20C2800D9FFE100F019FB0D0014003E007000FE019200AC00C6008F01AB01CC0164
:4008C000D501DF01002D06D11F236566A366032264E2002D09D022001821613213788B4308390B431370012258E22200E023643203CB03C22300210031331B7829315B07BC
:4009000007D49C4B5B681902090CC90161310093FF31200008226C3000F0EAFA002307226367A3673AE2042DD5D1237A532BD2D1914B00209B6CA366904B1A78904BD1B281
:40094000E1661B781B020B431A00E3668D4B1B781B0413438C4AE366127812061343E3668A4B1A788A4BD1B221671B781B020B431A002367874B1B781B041343864A236772
:40098000127812061343236714E2042DA3D1237A522BA0D172B6019B019A1B68F2251360F823002296205B00FA50DE3BED00FF3B7B514000FFF78CFC01227B597749934334
:4009C000774A7B5113689BB20B43136097E1042D81D12300227A7C33502A0BD118784E3A9043033D002800D0E3E11A7023007D331D70DFE10020187023007D331870012568
:400A0000D8E1701EC3B2052B00D964E718235843C0B2062E03D09D4200D05CE702E0082D00D058E721005F4B0830181808312A0000F05EFA63E1042D00D04CE75A4A127AB9
:400A4000002A00D047E7227A462A00D043E7A27A617A1202114322007C32127800910E20002A00D176E05A8807388A4200D971E09A888A4202D2DB888B426BD1009B072078
:400A80001A004A4B9A4265D823007D331B784549DBB20393464E3022464D002B25D0B36A9343203A1343B362434B0B607F234B60424BA9606B60C046C046C046AB681B0F10
:400AC00018070A2B3DD1009B93403D4A13430B603C4BA9606B60C046C046C046AA680023120F120782422CD12CE0B36A0831934310221343B362703208A800F0F9F92E4BBF
:400B000006937F23079306ABAB602C4B6B60C046C046C046AB681B0F19070A2B11D1009B274A1B041343069306ABAB60254B6B60C046C046C046AA68039B120F12078A4283
:400B400000D00C233021B26A18008A43B262002B00D00520009B1A00144B9A4200D094E022000421313213780B4313708DE0C046B4040000C0FF0000FCF0FF0F78F1FF0F5B
:400B800079F1FF0F7AF1FF0F7BF1FF0F7CF1FF0F7DF1FF0F7EF1FF0F7FF1FF0F0400FA050CED00E08002002000030020FF0100000000034000001040B6D700000400008093
:400BC000B6D8000005000080002D00D083E6711ECBB2052B00D97EE6182359430822C9B2062E00D01A002000774B08316430591800F07EF90722062E00D0CFE0043ACDE01B
:400C0000042D00D067E6227A462A00D063E6A17A627A0902114322007C3212780E20002A33D01B8907388B422FD2684B99422CD88140654880220830033D00F059F9280001
:400C4000B8E0042D00D046E6267A012E00D193E007201AE0002D00D03DE6230031331A78230060331A710EE0082D00D033E6A068E168574B42189A4200D92CE6FFF7CCFA25
:400C8000230060331871022288E022001F210125603213788B4302990B43137001350230EAB2606682E062684A49130C8B4226D1E723110A22640B402200102141320B4314
:400CC00013702100012240310F20FFF719FB16E0092B14D123003233187803280FD13E4E3378002B03D10130FFF748FB07E0FFF745FB2021394A13688B431360357021004E
:400D000032310A78012A13D12025344803682B430360314B1A7002230B700021304B314A99503149314A99500521314A99505BE4022A00D058E42A4D2D4EAB59DB0300D495
:400D400052E42549013A10000C31FFF7D9FA0022244BEA50254B244AEA500523AB5143E4244A254953728023019A1360234A13689BB20B43136037E42148FFF75FFA210014
:400D80003131002804D10B78AB430B70350011E00A78062015430D7035000BE021001F2060310B788343029803430B70210060318AE7032022001F21603213788B43029962
:400DC0000B4313706AE7C04680020020FF010000FFFF0000B40400008C000020C4000A40001000E018D00000FFEA410014D0000010D00000000300200400FA050CED00E0F4
:400E0000C0FF0000F8B500250E490F4B01394A1C14D000221F685C689E68A018B24203D0B858A0500432F8E70200DE68141AA64201D020C2FAE710330139E8E700F01EF8A1
:400E4000FFF732FB01000000380F0000000000000230800803D00138FDD1C046C046C0467047EFF3108072B6704780F310887047014B18687047C046000100200E4B70B56F
:400E800000251E000D4CE41AA410A54204D0AB00F35898470135F8E700F03CF8084B00251E00084CE41AA410A54204D0AB00F35898470135F8E770BD200F0000200F00004F
:400EC000200F0000280F000002B4714649084900095C49008E4402BC7047C04603B47146490840004900095A49008E4403BC7047002310B59A4203D0CC5CC4540133F9E763
:400F000010BD0000C0000000001000000000000043000000F8B5C046F8BC08BC9E4670472901000099030000F8B5C046F8BC08BC9E46704701010000480F0000880000207E
:400F40008000000008020000000000000100000200020002000200005A90010A320000000000000000000000000000000000000000000000000000000000000000000000B7
:400F8000100F000000000000000000000000000000000000000000000000000000000000000000000000000000000000000000000000000000000000000000000000000012
:400FC000A000002000000000000000000000000000000000000000000000000000000000000000000000000000000000000000000000000000000000000000000000000031
:4010000000000000000000000000000000000000000000000000000000000000000000000000000000000000000000000000000000000000000000000000000000000000B0
:401040000000000000000000000000000000000000000000000000000000000000000000000000000000000000000000000000000000000000000000000000000000000070
:401080000000000000000000000000000000000000000000000000000000000000000000000000000000000000000000000000000000000000000000000000000000000030
:4010C00000000000000000000000000000000000000000000000000000000000000000000000000000000000000000000000000000000000000000000000000000000000F0
:40FFC0000000000000000000000000000000000000000000010000000000000000000000000000000000000000000000000000000000000000000000000000000000000000
:0200000490303A
:02000000CE6DC3
:0200000490402A
:4000000000000000000000000000000000000000000000000000000000000000000000000000000000000000000000000000000000000000000000000000000000000000C0
:0200000490501A
:0C0000000002200211B000012006E01DEB
:0200000490600A
:0100000001FE
:00000001FF