:400000000020002011000000690300006903000010B50C4A0C4B1A600C4B1A68102313400B4A00D113601368802B09D10023136000F096F8002803D000F092F800F0A8F89A
:4000400000F03EFE6588EDAC38000340540003408000002000000000000000000000000000000000000000000000000000000000000000000000000000000000000000001C
:400080000000000000000000000000000000000000000000000000000000000000000000000000000000000000000000000000000000000000000000000000000000000040
:4000C0000000000000000000000000000000000000000000000000000000000000000000B205013162700200B011032000000000000000000000000000000000000000005F
:4001000010B5064C2378002B07D1054B002B02D0044800E000BF0123237010BD0001002000000000C40D0000084B10B5002B03D00749084800E000BF07480368002B00D151
:4001400010BD064B002BFBD09847F9E70000000004010020C40D00008800002000000000074B1A78074B1878074B000219780B04184303001343054A1078000618437047B1
:40018000C1FF0000C2FF0000C3FF0000C4FF00000047000070B51D491D4BCC58002C34D00C3BCC5063052BD5C86D1A4BCA6D40041A600022400F824208DA15001835AD002B
:4001C0004E59013295005E51D2B2F4E707200F211A68550A05401140012902D1120B02420ED05A1CD27F002A03D09A1CD27F954206D001215A1CD1779A1CD57740225A6200
:40020000A30502D50122034B5A6270BD00000A400C05000080010020031E0CD00023994209D04118814204D0027801309B18DBB2F8E75B42DBB2180070470000F8B50400B1
:40024000A2784078E378120202431B0413431A00237906261B06134333D0A37A607AE17A1B02034309041A000B00217B13430906194326D0A57963792D021D43ED0128004E
:40028000114F80304318BB421BD8FFF7C5FF2378834216D12C008134FF34BC4211D80B4B22889A420DD12800E179A379090219438B300A39FF30FFF7AFFF237A834200D124
:4002C00000263000F8BDC046FFFF00005943000070B5802504002D02AC4205D9054800F013FD054BE418F7E70448604300F00CFD70BDC0460000E02E0080FFFFC05D00004F
:40030000F8B50700012014000D00FFF7E1FF134E4020330028331B782203384310435B02184300230E4AD060A34206D299006858191D890050500133F6E78021094A8902B4
:40034000136803200B431360FFF7C2FF3300072128331A7801320A401A70F8BD8001002000000A40C4000A4010B500F0DDFC03680C2B00D1FEE7FEE7002370B52E482F4C66
:400380002F4D9A002100032B00D8A958013381501F2BF6D172B6DD2207252A4B2A4C1A602A4BA73A1A602A4B243A1A6000F0B5FC2368284AAB432360274B28491B78060089
:4003C000DBB21360264A1368AB431360254B0A6818787F239A43034013430B60322000F093FC052223683220AB431343236000F08BFC062223683000AB431343236000F00F
:4004000090FC9E22C021184BD2011A60174B184A89001A60174A1160174A1A604022174B1A60174B1A68002A00D11A600121154A13680B43136070BD00000020690300005E
:400440000000000000000240080F034008000440300010400C0F0340FDF1FF0F180F0340100F0340E4F1FF0F040201400000014001FF00800002014000FF008028000340D6
:400480008000002000001040F0B5D34C00232500A9B03135D1482B70FFF7D0FE002801D004232B702300082131331A78CC480A43CC491A700A68019192B2CB4D824206D111
:4004C00000220A6001211A780A431A7006E0019A12681A780423134000D1B6E3202201260027C24BC2491A8059809980E139FF39D980C04B96209A65BF4BC122DF611E6228
:400500002B68D200B340F3402B6080231B062B60AB5816398B433343AB50000100F0F4FB9622B64B52001A60B54AB64BD2211A60C022D200AB58C900B340F340AB506B588F
:40054000B340F3406B50D623AF49DB00E950AB58AE490B438E21AB50AD4BAE4A1F60AE4BFF311A60AD4A13681E431660AC4BAD4A1A60AD4A13685B0A5B020B431360802348
:40058000AA4ADB001360AA49AA4A1160AA4AAB491360A1220133FF33E950D200AB580B438021AB50D932FF32AB5809050B43AB5062B6210032310E78002E4AD104ABDF1D79
:4005C00000233B709E4205D1C023DB00EA589C4B134005E0C0238022DB00EB5852001343C022D200AB50F02000F08EFBAD239B00EB585B05DB0F3B703A78B300D2B2002A1F
:4006000021D0E218516B01315163516B8D4A91421BD90022A11CF6B2E6636263A263CA77210028310A70611CCA772200012132321170C0220420D200A9588143A950A95886
:400640000B43AB5028E0E3185A630136022E23D0B4E7AD239B00EA584D33FF33624E134015D1E26B9200A218506B01305063E26B9200A218506B734A90420DD90127724851
:400680006363A3633258BA4332500B7004E00022E36B9B00E3185A63636A012B0DD1002600F03BFB666200F03CFBA31CDE77230028331E70631CDE777BE7636A402B00D0D3
:4006C00077E700F02AFB0023636200F02AFB226857047F0F00D16CE70F231A40012A06D1802321005B052364403102201CE00F2A00D05EE76379DB0928D02079C006C00EF8
:400700000138032800D954E700F03AFB0211151D4E4B210023644E4B042263640023A3644C4B4031E3640F20FFF7EAFD41E74A4B23644A4B02E04A4B2364012321006364A8
:4007400040310222EFE7474B23647AE2E288464B9A4200D066E22100200060314B80182326796130F206D20E0292027876099A43103B1A4302701F220B7870011A40029B1A
:40078000013F0243BF00581EFFB20A700C2800D948E200F0FFFA0D0014008900BC004702D600F1000B01A901C501E701EF01F901002F06D11F236766A366032261E2002FBB
:4007C00054D022001821613213788B4308390B431370012255E2C04680010020C0FF00004C4200008000002000000A408C000020FF01000000FF0A40FC000140D0000A40F8
:400800000A404101D4000A4061643D000A00FE00A8000A400B410000BC000A40C4000A40B4000A400F020000E4000A4080E100E0950100006800002000E100E0030601004B
:40084000FFFEFFFFC40900001C060000418000FFB4040092000060F6428000FF0000B4044380B4044480B404B40400002200E023643203CB03C22300210031331B78293123
:400880005B0707D4C94B5B681902090CC90161310093FF31200008226C3000F085FA002307226367A367ECE1042F8AD1237A532B87D1BF4B3E009B6C0020A366BD4B1A7880
:4008C000BD4BD1B2E1661B781B020B431A00E366BA4B1B781B041343B94AE366127812061343E366B74B1A78B74BD1B221671B781B020B431A002367B44B1B781B041343E1
:40090000B34A23671278120613432367C5E1042F00D056E7237A522B00D052E772B60121019B019A1B681E201360AA4AAB588B43AB501C3AA958A84B0B40AB50FFF7C8FCE6
:4009400088E1042F00D03CE72300227A7C33502A0BD118784E3A90430126002800D09BE11A7023007D331E7097E10020187023007D331870012690E1701EC3B2052B00D994
:400980001FE718235843C0B2062E03D09F4200D017E702E0082F00D013E721008F4B0830181808313A0000F0FFF902E6042F00D007E78B4B1B7A002B00D002E7237A462B5C
:4009C00000D0FEE6A37A627A1B021A4323007C331B7800920E20002B00D178E0814B00991A8807388A4200D971E05A888A4202D29B888B426BD1009B07201A007A4B9A42F0
:400A000065D823007D331B787449DBB20393774F3022774E002B25D0BB6A9343203A1343BB62744B0B607F234B60734BB1607360C046C046C046B3681B0F18070A2B3DD19C
:400A4000009B93406D4A13430B606D4BB1607360C046C046C046B2680023120F120782422CD12CE0BB6A0831934310221343BB62703208A800F098F95E4B06937F23079374
:400A800006ABB3605C4B7360C046C046C046B3681B0F19070A2B11D1009B584A1B041343069306ABB360564B7360C046C046C046B268039B120F12078A4200D00C233021C7
:400AC000BA6A18008A43BA62002B00D00520009B1A00454B9A4200D096E022000421313213780B4313708FE0002F00D069E6711ECBB2052B00D964E6182359430822C9B2AC
:400B0000062E00D01A002000344B08316430591800F04AF90722062E00D0B2E0043AB0E0042F00D04DE6237A462B00D049E6A17A637A0902194323007C331B780E20002B9A
:400B400062D0284B0738DB888B425DD2264B99425AD80126814021488022083000F024F930009AE0042F00D02BE6267A012E78D0072049E0002F00D023E6230031331A7836
:400B8000230060331A710EE0082F00D019E6A068E1681C4B42189A4200D912E6FFF73CFB23006033187102226BE0C046C0FF0000FCF0FF0F78F1FF0F79F1FF0F7AF1FF0F3F
:400BC0007BF1FF0F7CF1FF0F7DF1FF0F7EF1FF0F7FF1FF0F1C060000FFFF3FFF00020020800200208C000020FF0100000000034000001040B6D7000004000080B6D8000089
:400C000005000080FFFF000022001F210126603213788B4302990B43137001360230F2B2606636E06268214B110C994200D0C0E4E723110A22640B402200102141320B43BC
:400C400013702100012240316DE5194A53728023019A1360174A184913689BB20B431360A7E41648FFF7EAFA21003131002803D10B78BB430B7010E00A78062017430F7017
:400C80000BE021001F2060310B788343029803430B702100603146E5032022001F21603213788B4302990B431370B6E7B4040000800200200CED00E00400FA05C0FF000069
:400CC000F8B500250E490F4B01394A1C14D000221F685C689E68A018B24203D0B858A0500432F8E70200DE68141AA64201D020C2FAE710330139E8E700F01CF8FFF7C4FBEF
:400D000001000000F00D00000230800803D00138FDD1C046C046C0467047EFF3108072B6704780F310887047014B18687047C046F80000200E4B70B500251E000D4CE41A8C
:400D4000A410A54204D0AB00F35898470135F8E700F03CF8084B00251E00084CE41AA410A54204D0AB00F35898470135F8E770BDD80D0000D80D0000D80D0000E00D0000EC
:400D800002B4714649084900095C49008E4402BC7047C04603B47146490840004900095A49008E4403BC7047002310B59A4203D0CC5CC4540133F9E710BD000087000000B6
:400DC000800E00000000000043000000F8B5C046F8BC08BC9E4670472901000079030000F8B5C046F8BC08BC9E46704701010000000E00008800002078000000900100002F
:400E0000000000000002000200020002320000000000000000000000000000000000000000000000000000000000000000000000C80D0000000000000000000000000000A3
:400E400000000000000000000000000000000000000000000000000000000000000000000000000000000000000000000000000098000020000000000000000000000000BA
:400E80000000000000000000000000000000000000000000000000000000000000000000000000000000000000000000000000000000000000000000000000000000000032
:400EC00000000000000000000000000000000000000000000000000000000000000000000000000000000000000000000000000000000000000000000000000000000000F2
:400F000000000000000000000000000000000000000000000000000000000000000000000000000000000000000000000000000000000000000000000000000000000000B1
:400F40000000000000000000000000000000000000000000000000000000000000000000000000000000000000000000000000000000000000000000000000000000000071
:40FFC0000000000000000000000000000000000000000000010000000000000000000000000000000000000000000000000000000000000000000000000000000000000000
:0200000490303A
:02000000658B0E
:0200000490402A
:4000000000000000000000000000000000000000000000000000000000000000000000000000000000000000000000000000000000000000000000000000000000000000C0
:0200000490501A
:0C0000000002200311B000012007773B34
:0200000490600A
:0100000001FE
:00000001FF